{
  "_format": "hh-sol-artifact-1",
  "contractName": "EarthverseDeposit",
  "sourceName": "contracts/EarthverseDeposit.sol",
  "abi": [
    {
      "inputs": [
        {
          "internalType": "address",
          "name": "_bftd",
          "type": "address"
        },
        {
          "internalType": "address",
          "name": "_earthverseMarketplace",
          "type": "address"
        }
      ],
      "stateMutability": "nonpayable",
      "type": "constructor"
    },
    {
      "inputs": [
        {
          "internalType": "address",
          "name": "stablecoin",
          "type": "address"
        }
      ],
      "name": "EarthverseDeposit_AlreadyStablecoinAdded",
      "type": "error"
    },
    {
      "inputs": [],
      "name": "EarthverseDeposit_InvalidDepositAmount",
      "type": "error"
    },
    {
      "inputs": [],
      "name": "EarthverseDeposit_NoBNBXWasMinted",
      "type": "error"
    },
    {
      "inputs": [
        {
          "internalType": "address",
          "name": "stablecoin",
          "type": "address"
        }
      ],
      "name": "EarthverseDeposit_NotAvailableStablecoinForBuyNFTLand",
      "type": "error"
    },
    {
      "inputs": [],
      "name": "EarthverseDeposit_NotStablecoinAdderRole",
      "type": "error"
    },
    {
      "inputs": [],
      "name": "EarthverseDeposit_ZeroAddress",
      "type": "error"
    },
    {
      "anonymous": false,
      "inputs": [
        {
          "indexed": false,
          "internalType": "address",
          "name": "stablecoinAddress",
          "type": "address"
        }
      ],
      "name": "NewStablecoinAddressAdded",
      "type": "event"
    },
    {
      "anonymous": false,
      "inputs": [
        {
          "indexed": true,
          "internalType": "bytes32",
          "name": "role",
          "type": "bytes32"
        },
        {
          "indexed": true,
          "internalType": "bytes32",
          "name": "previousAdminRole",
          "type": "bytes32"
        },
        {
          "indexed": true,
          "internalType": "bytes32",
          "name": "newAdminRole",
          "type": "bytes32"
        }
      ],
      "name": "RoleAdminChanged",
      "type": "event"
    },
    {
      "anonymous": false,
      "inputs": [
        {
          "indexed": true,
          "internalType": "bytes32",
          "name": "role",
          "type": "bytes32"
        },
        {
          "indexed": true,
          "internalType": "address",
          "name": "account",
          "type": "address"
        },
        {
          "indexed": true,
          "internalType": "address",
          "name": "sender",
          "type": "address"
        }
      ],
      "name": "RoleGranted",
      "type": "event"
    },
    {
      "anonymous": false,
      "inputs": [
        {
          "indexed": true,
          "internalType": "bytes32",
          "name": "role",
          "type": "bytes32"
        },
        {
          "indexed": true,
          "internalType": "address",
          "name": "account",
          "type": "address"
        },
        {
          "indexed": true,
          "internalType": "address",
          "name": "sender",
          "type": "address"
        }
      ],
      "name": "RoleRevoked",
      "type": "event"
    },
    {
      "anonymous": false,
      "inputs": [
        {
          "indexed": false,
          "internalType": "address",
          "name": "stablecoinAddress",
          "type": "address"
        }
      ],
      "name": "StablecoinAddressRemoved",
      "type": "event"
    },
    {
      "anonymous": false,
      "inputs": [
        {
          "indexed": true,
          "internalType": "address",
          "name": "sender",
          "type": "address"
        },
        {
          "indexed": true,
          "internalType": "uint256",
          "name": "amountOut",
          "type": "uint256"
        }
      ],
      "name": "StakedAndReceivedNFTLand",
      "type": "event"
    },
    {
      "stateMutability": "payable",
      "type": "fallback"
    },
    {
      "inputs": [],
      "name": "ADDER_STABLECOIN_ROLE",
      "outputs": [
        {
          "internalType": "bytes32",
          "name": "",
          "type": "bytes32"
        }
      ],
      "stateMutability": "view",
      "type": "function"
    },
    {
      "inputs": [],
      "name": "BNBX",
      "outputs": [
        {
          "internalType": "address",
          "name": "",
          "type": "address"
        }
      ],
      "stateMutability": "view",
      "type": "function"
    },
    {
      "inputs": [],
      "name": "DEFAULT_ADMIN_ROLE",
      "outputs": [
        {
          "internalType": "bytes32",
          "name": "",
          "type": "bytes32"
        }
      ],
      "stateMutability": "view",
      "type": "function"
    },
    {
      "inputs": [],
      "name": "POOL_FEE",
      "outputs": [
        {
          "internalType": "uint24",
          "name": "",
          "type": "uint24"
        }
      ],
      "stateMutability": "view",
      "type": "function"
    },
    {
      "inputs": [],
      "name": "STADER_STAKE_MANAGER",
      "outputs": [
        {
          "internalType": "address",
          "name": "",
          "type": "address"
        }
      ],
      "stateMutability": "view",
      "type": "function"
    },
    {
      "inputs": [
        {
          "internalType": "address",
          "name": "stablecoinAddress",
          "type": "address"
        }
      ],
      "name": "addNewStablecoinAddress",
      "outputs": [],
      "stateMutability": "nonpayable",
      "type": "function"
    },
    {
      "inputs": [
        {
          "internalType": "address",
          "name": "",
          "type": "address"
        }
      ],
      "name": "availableStablecoins",
      "outputs": [
        {
          "internalType": "bool",
          "name": "",
          "type": "bool"
        }
      ],
      "stateMutability": "view",
      "type": "function"
    },
    {
      "inputs": [
        {
          "internalType": "address",
          "name": "",
          "type": "address"
        }
      ],
      "name": "balances",
      "outputs": [
        {
          "internalType": "uint256",
          "name": "",
          "type": "uint256"
        }
      ],
      "stateMutability": "view",
      "type": "function"
    },
    {
      "inputs": [],
      "name": "bftd",
      "outputs": [
        {
          "internalType": "address",
          "name": "",
          "type": "address"
        }
      ],
      "stateMutability": "view",
      "type": "function"
    },
    {
      "inputs": [
        {
          "internalType": "address",
          "name": "tokenIn",
          "type": "address"
        },
        {
          "internalType": "uint256",
          "name": "amountIn",
          "type": "uint256"
        },
        {
          "internalType": "uint256",
          "name": "nftLandId",
          "type": "uint256"
        },
        {
          "internalType": "uint256",
          "name": "decimalsOfInput",
          "type": "uint256"
        }
      ],
      "name": "depositStaderAndSendNFTLand",
      "outputs": [],
      "stateMutability": "nonpayable",
      "type": "function"
    },
    {
      "inputs": [],
      "name": "earthverseMarketplace",
      "outputs": [
        {
          "internalType": "address",
          "name": "",
          "type": "address"
        }
      ],
      "stateMutability": "view",
      "type": "function"
    },
    {
      "inputs": [
        {
          "internalType": "bytes32",
          "name": "role",
          "type": "bytes32"
        }
      ],
      "name": "getRoleAdmin",
      "outputs": [
        {
          "internalType": "bytes32",
          "name": "",
          "type": "bytes32"
        }
      ],
      "stateMutability": "view",
      "type": "function"
    },
    {
      "inputs": [
        {
          "internalType": "bytes32",
          "name": "role",
          "type": "bytes32"
        },
        {
          "internalType": "address",
          "name": "account",
          "type": "address"
        }
      ],
      "name": "grantRole",
      "outputs": [],
      "stateMutability": "nonpayable",
      "type": "function"
    },
    {
      "inputs": [
        {
          "internalType": "bytes32",
          "name": "role",
          "type": "bytes32"
        },
        {
          "internalType": "address",
          "name": "account",
          "type": "address"
        }
      ],
      "name": "hasRole",
      "outputs": [
        {
          "internalType": "bool",
          "name": "",
          "type": "bool"
        }
      ],
      "stateMutability": "view",
      "type": "function"
    },
    {
      "inputs": [
        {
          "internalType": "address",
          "name": "stablecoinAddress",
          "type": "address"
        }
      ],
      "name": "removeStablecoinAddress",
      "outputs": [],
      "stateMutability": "nonpayable",
      "type": "function"
    },
    {
      "inputs": [
        {
          "internalType": "bytes32",
          "name": "role",
          "type": "bytes32"
        },
        {
          "internalType": "address",
          "name": "account",
          "type": "address"
        }
      ],
      "name": "renounceRole",
      "outputs": [],
      "stateMutability": "nonpayable",
      "type": "function"
    },
    {
      "inputs": [
        {
          "internalType": "bytes32",
          "name": "role",
          "type": "bytes32"
        },
        {
          "internalType": "address",
          "name": "account",
          "type": "address"
        }
      ],
      "name": "revokeRole",
      "outputs": [],
      "stateMutability": "nonpayable",
      "type": "function"
    },
    {
      "inputs": [
        {
          "internalType": "bytes4",
          "name": "interfaceId",
          "type": "bytes4"
        }
      ],
      "name": "supportsInterface",
      "outputs": [
        {
          "internalType": "bool",
          "name": "",
          "type": "bool"
        }
      ],
      "stateMutability": "view",
      "type": "function"
    },
    {
      "inputs": [],
      "name": "uniswapV2Router",
      "outputs": [
        {
          "internalType": "contract IUniswapV2Router02",
          "name": "",
          "type": "address"
        }
      ],
      "stateMutability": "view",
      "type": "function"
    },
    {
      "stateMutability": "payable",
      "type": "receive"
    }
  ],
  "bytecode": "0x60e06040523480156200001157600080fd5b50604051620018c0380380620018c0833981016040819052620000349162000271565b6001600160a01b03821615806200005257506001600160a01b038116155b15620000715760405163e464451160e01b815260040160405180910390fd5b6200007e600033620001a4565b620000aa7f4341d0255cf8de0fa9a36829221c28fe13c7d7b36de3957b92d9dd74a1e6fc3633620001a4565b6001600160a01b039182166080521660a052739ac64cc6e4415144c455bd8e4837fea55603e5c360c05260026020527fcf092036a408183696c660f552be4366f327f35409fc173d3edfcf7d180bd68a8054600160ff1991821681179092557fc1366e4039a338a2e6788f85bb0398b7949fcb79c95ee36c77f168f2ce5f068c80548216831790557fad73d77f5fc003325467baa8fb35572fad6a8e99b9c01aec7dca2919a6c856db805482168317905573ec5dcb5dbf4b114c9d0f65bccab49ec54f6a08676000527fbb299f5fd347912fc4d913cd930e63d5be28d501a995e61592ba7afef02768f280549091169091179055620002a9565b620001b08282620001b4565b5050565b6000828152602081815260408083206001600160a01b038516845290915290205460ff16620001b0576000828152602081815260408083206001600160a01b03851684529091529020805460ff19166001179055620002103390565b6001600160a01b0316816001600160a01b0316837f2f8788117e7eff1d82e926ec794901d17c78024a50270940304540a733656f0d60405160405180910390a45050565b80516001600160a01b03811681146200026c57600080fd5b919050565b600080604083850312156200028557600080fd5b620002908362000254565b9150620002a06020840162000254565b90509250929050565b60805160a05160c0516115c4620002fc6000396000818161015c01528181610bd001528181610c4c0152610d040152600081816103fa01526105bc0152600081816102ef015261066101526115c46000f3fe60806040526004361061010c5760003560e01c80636f38efd81161009a578063c7661f8f11610061578063c7661f8f14610376578063d547741f1461039e578063dd1b9c4a146103be578063fa0d0603146103e8578063fa19dc071461041c57005b80636f38efd8146102a95780637a9ee358146102dd57806387479a9b1461031157806391d1485414610341578063a217fddf1461036157005b80632f2ff15d116100de5780632f2ff15d1461020157806336568abe146102215780635459c11a1461024157806357fd08fe1461026957806364b725071461028957005b806301ffc9a7146101155780631694505e1461014a578063248a9ca31461019657806327e235e3146101d457005b3661011357005b005b34801561012157600080fd5b506101356101303660046111a9565b61043c565b60405190151581526020015b60405180910390f35b34801561015657600080fd5b5061017e7f000000000000000000000000000000000000000000000000000000000000000081565b6040516001600160a01b039091168152602001610141565b3480156101a257600080fd5b506101c66101b13660046111d3565b60009081526020819052604090206001015490565b604051908152602001610141565b3480156101e057600080fd5b506101c66101ef366004611201565b60016020526000908152604090205481565b34801561020d57600080fd5b5061011361021c36600461121e565b610473565b34801561022d57600080fd5b5061011361023c36600461121e565b61049d565b34801561024d57600080fd5b5061017e73dadcae6bf110c0e70e5624bcdccbe206f92a2df981565b34801561027557600080fd5b5061011361028436600461124e565b610520565b34801561029557600080fd5b506101136102a4366004611201565b6108aa565b3480156102b557600080fd5b506101c67f4341d0255cf8de0fa9a36829221c28fe13c7d7b36de3957b92d9dd74a1e6fc3681565b3480156102e957600080fd5b5061017e7f000000000000000000000000000000000000000000000000000000000000000081565b34801561031d57600080fd5b5061013561032c366004611201565b60026020526000908152604090205460ff1681565b34801561034d57600080fd5b5061013561035c36600461121e565b6109ba565b34801561036d57600080fd5b506101c6600081565b34801561038257600080fd5b5061017e733ecb02c703c815e9cffd8d9437b7a2f93638d7cb81565b3480156103aa57600080fd5b506101136103b936600461121e565b6109e3565b3480156103ca57600080fd5b506103d4610bb881565b60405162ffffff9091168152602001610141565b3480156103f457600080fd5b5061017e7f000000000000000000000000000000000000000000000000000000000000000081565b34801561042857600080fd5b50610113610437366004611201565b610a08565b60006001600160e01b03198216637965db0b60e01b148061046d57506301ffc9a760e01b6001600160e01b03198316145b92915050565b60008281526020819052604090206001015461048e81610ac8565b6104988383610ad5565b505050565b6001600160a01b03811633146105125760405162461bcd60e51b815260206004820152602f60248201527f416363657373436f6e74726f6c3a2063616e206f6e6c792072656e6f756e636560448201526e103937b632b9903337b91039b2b63360891b60648201526084015b60405180910390fd5b61051c8282610b59565b5050565b600083116105415760405163ab706e1d60e01b815260040160405180910390fd5b6001600160a01b03841660009081526002602052604090205460ff16610585576040516301c5a60d60e11b81526001600160a01b0385166004820152602401610509565b61058f8385610bbe565b604051634ad0104f60e11b81523360048201526024810183905260448101849052606481018290526000907f00000000000000000000000000000000000000000000000000000000000000006001600160a01b0316906395a0209e906084016020604051808303816000875af115801561060d573d6000803e3d6000fd5b505050506040513d601f19601f820116820180604052508101906106319190611289565b604051630ab714fb60e11b81526001600160a01b03808316600483015260248201879052604482018590529192507f00000000000000000000000000000000000000000000000000000000000000009091169063156e29f690606401600060405180830381600087803b1580156106a757600080fd5b505af11580156106bb573d6000803e3d6000fd5b50506040516370a0823160e01b815230600482015260009250733ecb02c703c815e9cffd8d9437b7a2f93638d7cb91506370a0823190602401602060405180830381865afa158015610711573d6000803e3d6000fd5b505050506040513d601f19601f8201168201806040525081019061073591906112a6565b9050600047905073dadcae6bf110c0e70e5624bcdccbe206f92a2df96001600160a01b031663d0e30db0826040518263ffffffff1660e01b81526004016000604051808303818588803b15801561078b57600080fd5b505af115801561079f573d6000803e3d6000fd5b50506040516370a0823160e01b815230600482015260009350733ecb02c703c815e9cffd8d9437b7a2f93638d7cb92506370a082319150602401602060405180830381865afa1580156107f6573d6000803e3d6000fd5b505050506040513d601f19601f8201168201806040525081019061081a91906112a6565b90508281101561083d5760405163082e571f60e41b815260040160405180910390fd5b600061084984836112d5565b3360009081526001602052604081208054929350839290919061086d9084906112e8565b9091555050604051839033907ffd5ea28d6087c1605f89dd44ebc3cd2c852bd16c5f1f713218f5618d7611143790600090a3505050505050505050565b806001600160a01b0381166108d25760405163e464451160e01b815260040160405180910390fd5b6108fc7f4341d0255cf8de0fa9a36829221c28fe13c7d7b36de3957b92d9dd74a1e6fc36336109ba565b61091957604051631855bb5b60e01b815260040160405180910390fd5b6001600160a01b03821660009081526002602052604090205460ff161561095e57604051630401b05f60e31b81526001600160a01b0383166004820152602401610509565b6001600160a01b038216600081815260026020908152604091829020805460ff1916600117905590519182527fd3fd5514d8d38737937e026d07c3e8fd002f28a6df2f95c0dc46a71c1d69f29091015b60405180910390a15050565b6000918252602082815260408084206001600160a01b0393909316845291905290205460ff1690565b6000828152602081905260409020600101546109fe81610ac8565b6104988383610b59565b806001600160a01b038116610a305760405163e464451160e01b815260040160405180910390fd5b610a5a7f4341d0255cf8de0fa9a36829221c28fe13c7d7b36de3957b92d9dd74a1e6fc36336109ba565b610a7757604051631855bb5b60e01b815260040160405180910390fd5b6001600160a01b038216600081815260026020908152604091829020805460ff1916905590519182527f88e26bc6bef7637bfd9b65be229bfdec9813454ad0bee72203006a540dadfd5491016109ae565b610ad28133610d91565b50565b610adf82826109ba565b61051c576000828152602081815260408083206001600160a01b03851684529091529020805460ff19166001179055610b153390565b6001600160a01b0316816001600160a01b0316837f2f8788117e7eff1d82e926ec794901d17c78024a50270940304540a733656f0d60405160405180910390a45050565b610b6382826109ba565b1561051c576000828152602081815260408083206001600160a01b0385168085529252808320805460ff1916905551339285917ff6391f5c32d9c69d2a47ea670b442974b53935d1edc7fd64eb21e047a839171b9190a45050565b610bca81333085610dea565b610bf5817f000000000000000000000000000000000000000000000000000000000000000084610ef4565b6040805160028082526060820183526000926020830190803683370190505090508181600081518110610c2a57610c2a611311565b60200260200101906001600160a01b031690816001600160a01b0316815250507f00000000000000000000000000000000000000000000000000000000000000006001600160a01b031663ad5c46486040518163ffffffff1660e01b8152600401602060405180830381865afa158015610ca8573d6000803e3d6000fd5b505050506040513d601f19601f82011682018060405250810190610ccc9190611289565b81600181518110610cdf57610cdf611311565b6001600160a01b0392831660209182029290920101526040516318cbafe560e01b81527f0000000000000000000000000000000000000000000000000000000000000000909116906318cbafe590610d44908690600090869030904290600401611327565b6000604051808303816000875af1158015610d63573d6000803e3d6000fd5b505050506040513d6000823e601f3d908101601f19168201604052610d8b9190810190611398565b50505050565b610d9b82826109ba565b61051c57610da881610ff4565b610db3836020611006565b604051602001610dc492919061147a565b60408051601f198184030181529082905262461bcd60e51b8252610509916004016114ef565b604080516001600160a01b0385811660248301528481166044830152606480830185905283518084039091018152608490920183526020820180516001600160e01b03166323b872dd60e01b1790529151600092839290881691610e4e9190611522565b6000604051808303816000865af19150503d8060008114610e8b576040519150601f19603f3d011682016040523d82523d6000602084013e610e90565b606091505b5091509150818015610eba575080511580610eba575080806020019051810190610eba919061153e565b610eec5760405162461bcd60e51b815260206004820152600360248201526229aa2360e91b6044820152606401610509565b505050505050565b604080516001600160a01b038481166024830152604480830185905283518084039091018152606490920183526020820180516001600160e01b031663095ea7b360e01b1790529151600092839290871691610f509190611522565b6000604051808303816000865af19150503d8060008114610f8d576040519150601f19603f3d011682016040523d82523d6000602084013e610f92565b606091505b5091509150818015610fbc575080511580610fbc575080806020019051810190610fbc919061153e565b610fed5760405162461bcd60e51b8152602060048201526002602482015261534160f01b6044820152606401610509565b5050505050565b606061046d6001600160a01b03831660145b60606000611015836002611560565b6110209060026112e8565b67ffffffffffffffff811115611038576110386112fb565b6040519080825280601f01601f191660200182016040528015611062576020820181803683370190505b509050600360fc1b8160008151811061107d5761107d611311565b60200101906001600160f81b031916908160001a905350600f60fb1b816001815181106110ac576110ac611311565b60200101906001600160f81b031916908160001a90535060006110d0846002611560565b6110db9060016112e8565b90505b6001811115611153576f181899199a1a9b1b9c1cb0b131b232b360811b85600f166010811061110f5761110f611311565b1a60f81b82828151811061112557611125611311565b60200101906001600160f81b031916908160001a90535060049490941c9361114c81611577565b90506110de565b5083156111a25760405162461bcd60e51b815260206004820181905260248201527f537472696e67733a20686578206c656e67746820696e73756666696369656e746044820152606401610509565b9392505050565b6000602082840312156111bb57600080fd5b81356001600160e01b0319811681146111a257600080fd5b6000602082840312156111e557600080fd5b5035919050565b6001600160a01b0381168114610ad257600080fd5b60006020828403121561121357600080fd5b81356111a2816111ec565b6000806040838503121561123157600080fd5b823591506020830135611243816111ec565b809150509250929050565b6000806000806080858703121561126457600080fd5b843561126f816111ec565b966020860135965060408601359560600135945092505050565b60006020828403121561129b57600080fd5b81516111a2816111ec565b6000602082840312156112b857600080fd5b5051919050565b634e487b7160e01b600052601160045260246000fd5b8181038181111561046d5761046d6112bf565b8082018082111561046d5761046d6112bf565b634e487b7160e01b600052604160045260246000fd5b634e487b7160e01b600052603260045260246000fd5b600060a082018783526020878185015260a0604085015281875180845260c086019150828901935060005b818110156113775784516001600160a01b031683529383019391830191600101611352565b50506001600160a01b03969096166060850152505050608001529392505050565b600060208083850312156113ab57600080fd5b825167ffffffffffffffff808211156113c357600080fd5b818501915085601f8301126113d757600080fd5b8151818111156113e9576113e96112fb565b8060051b604051601f19603f8301168101818110858211171561140e5761140e6112fb565b60405291825284820192508381018501918883111561142c57600080fd5b938501935b8285101561144a57845184529385019392850192611431565b98975050505050505050565b60005b83811015611471578181015183820152602001611459565b50506000910152565b7f416363657373436f6e74726f6c3a206163636f756e74200000000000000000008152600083516114b2816017850160208801611456565b7001034b99036b4b9b9b4b733903937b6329607d1b60179184019182015283516114e3816028840160208801611456565b01602801949350505050565b602081526000825180602084015261150e816040850160208701611456565b601f01601f19169190910160400192915050565b60008251611534818460208701611456565b9190910192915050565b60006020828403121561155057600080fd5b815180151581146111a257600080fd5b808202811582820484141761046d5761046d6112bf565b600081611586576115866112bf565b50600019019056fea2646970667358221220232ecca631971e361b7051b3ae535875148764686a8b43e15036ef98e04bf60564736f6c63430008110033",
  "linkReferences": {},
  "deployedLinkReferences": {}
}